{
  "transactions": [
    {
      "hash": "0x3a1dddf301d2b3cc6fa77e1a1d712980ff4ec51d5c8b961a6e275d071dd4ccde",
      "transactionType": "CALL",
      "contractName": null,
      "contractAddress": "0x855036d27d0b0691ac6fc8a958ff90d394db9b62",
      "function": "approve(address,uint256)",
      "arguments": [
        "0x56fCEf10AAE54E7e7325eF6Eb1C1eF175C7034aD",
        "100000000000"
      ],
      "transaction": {
        "from": "0x5bac06ba1e1be967f8b9a6e962d1bc2a121f080a",
        "to": "0x855036d27d0b0691ac6fc8a958ff90d394db9b62",
        "gas": "0xfd11",
        "value": "0x0",
        "input": "0x095ea7b300000000000000000000000056fcef10aae54e7e7325ef6eb1c1ef175c7034ad000000000000000000000000000000000000000000000000000000174876e800",
        "nonce": "0x2e",
        "chainId": "0x530"
      },
      "additionalContracts": [],
      "isFixedGasLimit": false
    },
    {
      "hash": "0xb85eeb9ffc6674ac6892ddf4da0d6ab80397d21217fd9894c3fd488cd59f8a40",
      "transactionType": "CALL",
      "contractName": null,
      "contractAddress": "0x56fcef10aae54e7e7325ef6eb1c1ef175c7034ad",
      "function": "depositTokens(uint256)",
      "arguments": [
        "100000000000"
      ],
      "transaction": {
        "from": "0x5bac06ba1e1be967f8b9a6e962d1bc2a121f080a",
        "to": "0x56fcef10aae54e7e7325ef6eb1c1ef175c7034ad",
        "gas": "0x1472f",
        "value": "0x0",
        "input": "0xdd49756e000000000000000000000000000000000000000000000000000000174876e800",
        "nonce": "0x2f",
        "chainId": "0x530"
      },
      "additionalContracts": [],
      "isFixedGasLimit": false
    }
  ],
  "receipts": [
    {
      "status": "0x1",
      "cumulativeGasUsed": "0x0",
      "logs": [
        {
          "address": "0x855036d27d0b0691ac6fc8a958ff90d394db9b62",
          "topics": [
            "0x8c5be1e5ebec7d5bd14f71427d1e84f3dd0314c0f7b2291e5b200ac8c7c3b925",
            "0x0000000000000000000000005bac06ba1e1be967f8b9a6e962d1bc2a121f080a",
            "0x00000000000000000000000056fcef10aae54e7e7325ef6eb1c1ef175c7034ad"
          ],
          "data": "0x000000000000000000000000000000000000000000000000000000174876e800",
          "blockHash": "0x1dc460867fdad4db5548cd49f4b4b2fb5df89ee30be9542ccaa2f239706d876f",
          "blockNumber": "0x9f79c9e",
          "transactionHash": "0x3a1dddf301d2b3cc6fa77e1a1d712980ff4ec51d5c8b961a6e275d071dd4ccde",
          "transactionIndex": "0x1b",
          "logIndex": "0x0",
          "removed": false
        }
      ],
      "logsBloom": "0x00000000000000000000000000200000000000000000000000000000000000000000000000000000000000000000000000000000000000000000000000200000000000000002000000000000000000000000000000000000000000000000000000000000000000000000000000000000000000000010000000000000000000000000000000000000000000000000000000000000000000000000000080000400020000000000000000000000000000000000000000000000000000000000000000000000000000000000000000000000000000000100000000000000000008000112000000000000000000000000000000000000000000000000000000000000",
      "type": "0x2",
      "transactionHash": "0x3a1dddf301d2b3cc6fa77e1a1d712980ff4ec51d5c8b961a6e275d071dd4ccde",
      "transactionIndex": "0x0",
      "blockHash": "0x1dc460867fdad4db5548cd49f4b4b2fb5df89ee30be9542ccaa2f239706d876f",
      "blockNumber": "0x9f79c9e",
      "gasUsed": "0xb738",
      "effectiveGasPrice": "0x77359401",
      "from": "0x5bac06ba1e1be967f8b9a6e962d1bc2a121f080a",
      "to": "0x855036d27d0b0691ac6fc8a958ff90d394db9b62",
      "contractAddress": null
    },
    {
      "status": "0x1",
      "cumulativeGasUsed": "0x0",
      "logs": [
        {
          "address": "0x855036d27d0b0691ac6fc8a958ff90d394db9b62",
          "topics": [
            "0xddf252ad1be2c89b69c2b068fc378daa952ba7f163c4a11628f55a4df523b3ef",
            "0x0000000000000000000000005bac06ba1e1be967f8b9a6e962d1bc2a121f080a",
            "0x00000000000000000000000056fcef10aae54e7e7325ef6eb1c1ef175c7034ad"
          ],
          "data": "0x000000000000000000000000000000000000000000000000000000174876e800",
          "blockHash": "0x4d7a21142ff53923d2a4a60de8304bd8678c5ca73b821fb4c4b1e5bc52552380",
          "blockNumber": "0x9f79c9f",
          "transactionHash": "0xb85eeb9ffc6674ac6892ddf4da0d6ab80397d21217fd9894c3fd488cd59f8a40",
          "transactionIndex": "0x0",
          "logIndex": "0x0",
          "removed": false
        },
        {
          "address": "0x56fcef10aae54e7e7325ef6eb1c1ef175c7034ad",
          "topics": [
            "0x59062170a285eb80e8c6b8ced60428442a51910635005233fc4ce084a475845e",
            "0x0000000000000000000000005bac06ba1e1be967f8b9a6e962d1bc2a121f080a"
          ],
          "data": "0x000000000000000000000000000000000000000000000000000000174876e800",
          "blockHash": "0x4d7a21142ff53923d2a4a60de8304bd8678c5ca73b821fb4c4b1e5bc52552380",
          "blockNumber": "0x9f79c9f",
          "transactionHash": "0xb85eeb9ffc6674ac6892ddf4da0d6ab80397d21217fd9894c3fd488cd59f8a40",
          "transactionIndex": "0x0",
          "logIndex": "0x1",
          "removed": false
        }
      ],
      "logsBloom": "0x00000000000000000000000000200000000000000000000000000000000000000000000000000000000000000000000000000000000000000000000000000000000000000002000000000008000000000000200000000000000000000000000000000000000000000000000000000400000000000010800000000010000000000000000000000000000000000000000000000000000000000000000080000404000000000000000000000000000000000000000000000000000000000000000000000002000000004000000000000000000000000100000000000000000008000102000000000000000000000000000000000000000000000000000000000000",
      "type": "0x2",
      "transactionHash": "0xb85eeb9ffc6674ac6892ddf4da0d6ab80397d21217fd9894c3fd488cd59f8a40",
      "transactionIndex": "0x0",
      "blockHash": "0x4d7a21142ff53923d2a4a60de8304bd8678c5ca73b821fb4c4b1e5bc52552380",
      "blockNumber": "0x9f79c9f",
      "gasUsed": "0xece0",
      "effectiveGasPrice": "0x77359401",
      "from": "0x5bac06ba1e1be967f8b9a6e962d1bc2a121f080a",
      "to": "0x56fcef10aae54e7e7325ef6eb1c1ef175c7034ad",
      "contractAddress": null
    }
  ],
  "libraries": [],
  "pending": [],
  "returns": {},
  "timestamp": 1745429936,
  "chain": 1328,
  "commit": "96e2d7d"
}
